:04000000E1EF0AF032
:08000800046ED8CF05F0E0CF33
:1000100006F00001E9CF0CF0EACF07F0E1CF08F0DD
:10002000E2CF09F0D9CF0AF0DACF0BF0F3CF12F01C
:10003000F4CF13F0FACF14F0F5CF15F0F6CF16F099
:10004000F7CF17F000C00EF001C00FF002C010F0A3
:1000500003C011F09DA030EF00F09EB057EF00F00C
:100060000EC000F00FC001F010C002F011C003F08C
:100070000CC0E9FF07C0EAFF078E08C0E1FF09C016
:10008000E2FF0AC0D9FF0BC0DAFF12C0F3FF13C0B2
:10009000F4FF14C0FAFF15C0F5FF16C0F6FF17C035
:1000A000F7FF045006C0E0FF05C0D8FF10000B0E9C
:1000B000CF6EDC0ECE6E512A5150020804E14B2A5D
:1000C0004C2A4D2A516A4D50030802E14788479A4D
:1000D0004D50060803E1478A47984D6A9E9030EFDD
:1000E00000F0C150C00B0D09C16EC050C00B020919
:1000F000C06EC08EC280B50ECD6E9D80C00EF21255
:10010000946A8B6A3E6A3E50060834E3036A3E50A6
:100110003F0FE96E000E0320EA6EF2CF5BF0F29E15
:100120003EC0A9FFA69CA69EA680A8505BBEF28EEC
:10013000EF6E036A3E503F0FE96E000E0320EA6E39
:10014000EFCF59F0F250006EF29E3EC0A9FF59C0A9
:10015000A8FFA69CA69EA6840F01550EA76EAA0E08
:10016000A76EA682A6B2FED7A6940050F2123E2A2F
:100170000001C9D7F2CF59F0F29E0A0EA96EA69CD3
:10018000A69EA680A85059BEF28E010808E1576AC3
:10019000400E566E1C0E556E8C0E546E07D0576A6C
:1001A000E00E566E120E556E8B0E546E5BEF0BF01A
:1001B0004B503C0803E14E2A4B6A0BD04E503C0892
:1001C00004E14F2A502A4E6A04D04F50180801E12A
:1001D0004F6A5DEF0BF0EA6A5F0EE96EEF500EE0DA
:1001E000010E016E006A002EFED7012EFBD74A0ECB
:1001F000006E002EFED700D0EF2EF2D712008E0E2A
:10020000006E5EC001F05DC002F0036A015209E1B8
:1002100002C001F0026A080E005E015202E1006AAB
:1002200008D0D89001BE04D0023601360006F9D7B6
:10023000019E12009251D8B471D0006E9651D8B47C
:100240006DD0002604E3810E002668E204D07F0E04
:10025000005E64E363E093C09AF097519A1B938F1A
:10026000978F95519903F4CF9CF094519803F4CF54
:1002700003F0F3CF9BF09903F3509C27F4509B239A
:10028000000E032295519803F3509C27F4509B23B2
:10029000000E026A0322022293519903F3509B2716
:1002A000F4500322000E022293519803F3500326C8
:1002B000F4500222000E016A012295519703F35077
:1002C0009B27F4500322000E02220122945197032F
:1002D000F3500326F4500222000E0122935197039B
:1002E000F3500226F4500122002A01BE05D09B37AC
:1002F0000336023601360006000E9BAF0AD0032AF1
:1003000002220122015005E1025003E1035001E104
:10031000002A9ABF018E9AAF019E04D0006A016A3A
:10032000026A036A12009651D8B4A5D0A26F9A51FE
:10033000D8B4A1D0A25F05E37F0EA227D8B09BD08E
:1003400006D0810EA25FD8A096D0D8B494D0A2C017
:1003500000F0016A026A036AA16B97C0A0F0A08F47
:1003600098C09FF099C09EF0190EA26F9D519E5F9C
:100370000DE2010E9F5F0AE2A05F08E2A15F06E2C4
:10038000A12BA02B9F2B9D519E2728D09C519F5F76
:1003900012E2010EA05F0FE2A15F0DE2A12BA02BE4
:1003A0009C519F279D519E2719E39F2B17E1A02B5E
:1003B00015E1A12B13D09B518009A05F0EE2010E25
:1003C000A15F0BE2A12B9B518009A0279C519F2785
:1003D000E9E3A02BE7E1A12BE5D70380A22F01D011
:1003E0000BD0D8909E379F37A037A137D8900336CF
:1003F00002360136A337BAD7A3A106D0D89001326E
:1004000002320332A33302D0000635E0A3BF1ED070
:10041000D8909E379F37A037A1379D519E5F07E246
:10042000010E9F5F04E2A05F02E2A15F1AE39C510C
:100430009F5F05E2010EA05F02E2A15F12E39B5104
:100440008009A05F03E2010EA15F0BE3032A09E12B
:10045000022A07E1012A05E1002A0DE001320232F9
:10046000033297C0A2F09B51A21BA2AF02D0018E13
:1004700006D0019E04D0006A016A026A036A120073
:10048000800ED8B29B1BA06BA16B97C09FF09B51B5
:100490009F1B9651D8B4DCD09E6F006E9A51D8B491
:1004A000E0D09E5FD8B481D03DE39BC0A4F0A48F80
:1004B0009CC0A3F09DC0A2F0A16BD890A433A3333D
:1004C000A233A1339E2FF8D79FAF03D0A081DDD0F8
:1004D000A0919E91A089EA6A990EE96EE9D0A0994F
:1004E0009FBF0AD09EA113D0A433A333A233A1335C
:1004F000002AD8B4C5D00BD0A4BF0CD0D890A13757
:10050000A237A337A4370006D8B4BAD0F5D7A08D48
:100510006BD0A09D97C09FF097AF02D0A48FA9D0B9
:10052000A49FA7D09AC09EF09AC000F096519E5FFB
:1005300097C0A4F0A48F98C0A3F099C0A2F0A16BBB
:10054000D890A433A333A233A1339E2FF8D79FAF03
:1005500003D0A0839AD0A0939E91A08BEA6A9D0EAF
:10056000E96EA6D0A09B9FBF0AD09EA113D0A43352
:10057000A333A233A133002AD8B482D00BD0A4BFB6
:100580000CD0D890A137A237A337A4370006D8B42F
:1005900077D0F5D7A08F28D0A09F9BC09FF09BAFAE
:1005A00002D0A48F66D0A49F64D09BC0A4F0A48F77
:1005B0009CC0A3F09DC0A2F09FAF04D0A49FA085D3
:1005C00064D0A095A16B9E91EA6A990EE96E70D0F5
:1005D0009FBF1CD097C09FF09EA106D0A433A33329
:1005E000A233A133002A4CE0A1AF0BD0A22B09E12A
:1005F000A32B07E1A42B05E1A433A333A233002AE4
:100600003FE0A0BD86D7A0BFC7D71CD0800EA41BDB
:10061000A4AF04D03AD09BC09FF00AD097C09FF0FF
:10062000A45306E1A35304E1A25302E1006A21D0DE
:10063000A4BF08D0D890A137A237A337A437002E83
:10064000F7D71ED09FAF02D0A48F13D0A49F11D094
:100650009AC000F09BC0A4F09CC0A3F09DC0A2F083
:1006600008D096C000F097C0A4F098C0A3F099C03D
:10067000A2F0A4C001F0A3C002F0A2C003F034D0E5
:10068000006A016A026A036A2FD0A16BA21FA31F2E
:10069000A41FA11FA12B05E1A22B03E1A32B01E1C4
:1006A000A42BA0B115D7A0B356D7A0B58AD7B3D77E
:1006B000EF50A22705E3A32B03E1A42BD8B49E811E
:1006C000ED52EF50A32703E3A42BD8B49E81ED5243
:1006D000EF50EFBE01D0800AA427D8B09E81A0B908
:1006E000FED6A0BB3FD774D7120093C09AF09751A3
:1006F0009A1B9AAF05D0D894D89093BFD8802FD0AA
:1007000093C09AF096C09BF092519B5F06E09AAF1F
:1007100026D0D850010AD86E22D097C09BF09351B2
:100720009B5F06E09AAF1BD0D850010AD86E17D055
:1007300098C09BF094519B5F06E09AAF10D0D850C0
:10074000010AD86E0CD099C09BF095519B5F06E0D2
:100750009AAF05D0D850010AD86E01D0D890EBEFEF
:1007600003F08E0E006E93C001F092C002F0036A97
:1007700093AF05D0011E021E022A01E1012A015297
:1007800009E102C001F0026A080E005E015202E1B6
:10079000006A0AD0D89001BE04D0023601360006A5
:1007A000F9D793BF01D0019E120080C084F07FC0B2
:1007B00083F07EC082F07DC081F084C095F083C05C
:1007C00094F082C093F081C092F0996B986B976B14
:1007D0007F0E966F8AD7D8B47CD1936B810EE96E69
:1007E00093C0EAFF7E0EEF6ED88284C099F083C07A
:1007F00098F082C097F081C096F09D6B9C6B9B6BCC
:100800007F0E9A6F3DDE00C092F001C093F002C0EF
:1008100094F003C095F0D89284C099F083C098F00A
:1008200082C097F081C096F09D6B9C6B9B6B7F0E96
:100830009A6F26DE95C099F094C098F093C097F017
:1008400092C096F003C09DF002C09CF001C09BF0E6
:1008500000C09AF068DD03C084F002C083F001C0DC
:1008600082F000C081F084C095F083C094F082C013
:1008700093F081C092F084C099F083C098F082C058
:1008800097F081C096F0D6DC03C090F002C08FF0E4
:1008900001C08EF000C08DF0990E956F470E946FD9
:1008A0008A0E936F7F0E926F90C099F08FC098F070
:1008B0008EC097F08DC096F0BDDC00C092F001C0F4
:1008C00093F002C094F003C095F0D89203C099F061
:1008D00002C098F001C097F000C096F09D6B9C6B31
:1008E0009B6B800E9A6FCCDD03C088F002C087F04E
:1008F00001C086F000C085F04C0E956FF30E946F2A
:100900003A0E936F7B0E926F90C099F08FC098F063
:100910008EC097F08DC096F08DDC00C092F001C0C3
:1009200093F002C094F003C095F0D89203C099F000
:1009300002C098F001C097F000C096F02B0E9D6F9A
:100940009D0E9C6FDF0E9B6F7E0E9A6F99DD03C02C
:100950008CF002C08BF001C08AF000C089F08CC01E
:1009600095F08BC094F08AC093F089C092F090C04B
:1009700099F08FC098F08EC097F08DC096F05ADC39
:1009800000C092F001C093F002C094F003C095F053
:10099000D89203C099F002C098F001C097F000C04F
:1009A00096F09D6B9C6B9B6B7F0E9A6F69DD03C00D
:1009B0008CF002C08BF001C08AF000C089F084C0C6
:1009C00095F083C094F082C093F081C092F088C00B
:1009D00099F087C098F086C097F085C096F02ADC21
:1009E00000C092F001C093F002C094F003C095F0F3
:1009F00003C099F002C098F001C097F000C096F0D3
:100A00008CC09DF08BC09CF08AC09BF089C09AF08E
:100A10008ADC03C088F002C087F001C086F000C005
:100A200085F0936B7D0EE96E93C0EAFF7E0EEF5C5E
:100A3000916F91BF01D012D0000ED8809155936B69
:100A4000926F92BF93078DDE00C089F00150800A3B
:100A50008A6F02C08BF003C08CF00ED0936B91C0F4
:100A600092F092BF93077DDE03C08CF002C08BF042
:100A700001C08AF000C089F08CC095F08BC094F062
:100A80008AC093F089C092F0180E996F720E986F19
:100A9000310E976F7E0E966F1AEC01F0D89288C0D7
:100AA00099F087C098F086C097F085C096F003C093
:100AB0009DF002C09CF001C09BF000C09AF0E0DC09
:100AC00003C088F002C087F001C086F000C085F046
:100AD00004D0886B876B866B856B85C000F086C001
:100AE00001F087C002F088C003F023EF06F0706BBE
:100AF000800E6F6F540E6E6F8A0E6D6F57C074F05C
:100B000056C073F055C072F054C071F0786B400E4F
:100B1000776F1C0E766F8D0E756F956B946B200E34
:100B2000936F810E926F60C099F05FC098F05EC0C5
:100B300097F05DC096F01AEC01F000C079F001C0AA
:100B40007AF002C07BF003C07CF003C099F002C0D1
:100B500098F001C097F000C096F09D6B9C6B9B6B6A
:100B6000890E9A6F93EC01F003C064F002C063F049
:100B700001C062F000C061F064C095F063C094F001
:100B800062C093F061C092F078C099F077C098F09D
:100B900076C097F075C096F01AEC01F000C079F0BD
:100BA00001C07AF002C07BF003C07CF0D882996B60
:100BB000986B200E976F810E966F64C09DF063C096
:100BC0009CF062C09BF061C09AF05ADC7CC099F046
:100BD0007BC098F07AC097F079C096F003C09DF082
:100BE00002C09CF001C09BF000C09AF093EC01F0B1
:100BF00003C068F002C067F001C066F000C065F095
:100C000068C099F067C098F066C097F065C096F02C
:100C100074C09DF073C09CF072C09BF071C09AF0DC
:100C200093EC01F000C079F001C07AF002C07BF0D3
:100C300003C07CF003C080F002C07FF001C07EF0F2
:100C400000C07DF0B2D500C079F001C07AF002C0DA
:100C50007BF003C07CF0996B986B976B7F0E966F5F
:100C600070C09DF06FC09CF06EC09BF06DC09AF09C
:100C700093EC01F07CC095F07BC094F07AC093F0C7
:100C800079C092F003C099F002C098F001C097F0CB
:100C900000C096F01AEC01F000C079F001C07AF0C3
:100CA00002C07BF003C07CF0EACF7EF0E9CF7DF09C
:100CB000D89203C099F002C098F001C097F000C02C
:100CC00096F00F0E9D6FCF0E9C6F5B0E9B6F760E96
:100CD0009A6F40EC02F07EC0EAFF7DC0E9FF996B9D
:100CE000986B976B7F0E966F03C09DF002C09CF0CF
:100CF00001C09BF000C09AF093EC01F000C079F0C5
:100D000001C07AF002C07BF003C07CF0EACF80F033
:100D1000E9CF7FF0D88203C099F002C098F001C0FB
:100D200097F000C096F0330E9D6F930E9C6F080EE7
:100D30009B6F870E9A6F40EC02F080C0EAFF7FC085
:100D4000E9FF03C06CF002C06BF001C06AF000C0A4
:100D500069F069C000F06AC001F06BC002F06CC0BD
:100D600003F012008E0E006E5D50005E5EC002F059
:100D70005FC001F0028E005209E0D890025202E1F9
:100D8000015204E002320132002EF7D75EAE05D0E8
:100D9000011E021E012AD8B4022A120047A832D02E
:100DA000000E016EC250C30B0110C26E140E5F6EB6
:100DB000EBEC00F0C282C2B2FED7C4CF03F0C3CFC7
:100DC0005DF0C4CF5EF0FFEC00F003C05CF002C049
:100DD0005BF001C05AF000C059F05CC060F05BC02D
:100DE0005FF05AC05EF059C05DF081DE03C060F074
:100DF00002C05FF001C05EF000C05DF0B3DF01C073
:100E000052F0479847AA32D0040E016EC250C30B6D
:100E10000110C26E140E5F6EEBEC00F0C282C2B223
:100E2000FED7C4CF03F0C3CF5DF0C4CF5EF0FFECBC
:100E300000F003C05CF002C05BF001C05AF000C0DB
:100E400059F05CC060F05BC05FF05AC05EF059C002
:100E50005DF04DDE03C060F002C05FF001C05EF0E7
:100E600000C05DF07FDF01C053F0479A5FEF0BF0E9
:100E70005E50016A5D5C03E25DC000F00CD0006A68
:100E8000080E5F6E5D3600365E50005CD8B0006EB6
:100E900001365F2EF7D712005AC05DF00A0E5E6E63
:100EA000E7DF00C05BF05AC05DF00A0E5E6EE0DF67
:100EB00001C05CF0036A5B50230FE96E000E032053
:100EC000EA6EEFCF5DF0936A5DC08AFF94948B84E5
:100ED0000A0E5F6EEBEC00F094928B9294948B94DC
:100EE000036A5C50230FE96E000E0320EA6EEFCF19
:100EF0005DF0936A5DC08AFF94928B820A0E5F6EEA
:100F0000EBEC00F094928B9294948B941200928468
:100F100080B40DD0928A80BA0AD0020E596E960E15
:100F20005F6EEBEC00F0592EFAD7582A4C6A5850F5
:100F3000010A05E0030A2BE0010A51E051D0576A8B
:100F4000400E566E1C0E556E8C0E546EF250006E96
:100F5000F29E0A0EA96E010EA86EA69CA69EA684FD
:100F60000F01550EA76EAA0EA76EA682A6B2FED7D7
:100F7000A6940050F2124C50020806E3150E5A6E69
:100F800000018ADF03D00F01586A000129D0576A97
:100F9000E00E566E120E556E8B0E546EF250006EB1
:100FA000F29E0A0EA96E020EA86EA69CA69EA684AC
:100FB0000F01550EA76EAA0EA76EA682A6B2FED787
:100FC000A6940050F2124C50020806E31D0E5A6E11
:100FD000000162DF03D00F01586A000101D0586A96
:100FE00060EF0BF0928480B410D0928880A80DD06E
:100FF000928680B60AD0020E596E960E5F6EEBECAA
:1010000000F0592EFAD73D2A4C6A3D50010A06E0FD
:10101000030A49E0010AD8B48BD08BD03E6A3E5017
:10102000060838E3036A3E503F0F016E000E0322AC
:1010300003C05AF0036A3E502D0FE96E000E0320E4
:10104000EA6EEFCF5BF05AC0EAFF01C0E9FF5BC078
:10105000EFFF036A3E503F0FE96E000E0320EA6E79
:10106000EFCF59F0F250006EF29E3EC0A9FF59C07A
:10107000A8FFA69CA69EA6840F01550EA76EAA0ED9
:10108000A76EA682A6B2FED7A6940050F2123E2A00
:101090000001C5D74C50020804E3510E5A6EFCDE25
:1010A00001D03D6A46D03E6A3E50060838E3036AE6
:1010B0003E503F0F016E000E032203C05AF0036A38
:1010C0003E50350FE96E000E0320EA6EEFCF5BF065
:1010D0005AC0EAFF01C0E9FF5BC0EFFF036A3E5060
:1010E0003F0FE96E000E0320EA6EEFCF59F0F25089
:1010F000006EF29E3EC0A9FF59C0A8FFA69CA69E06
:10110000A6840F01550EA76EAA0EA76EA682A6B2E0
:10111000FED7A6940050F2123E2A0001C5D74C50CB
:10112000020804E3590E5A6EB7DE01D03D6A01D0C1
:101130003D6A61EF0BF0928880B806D0C80E5F6EF2
:10114000EBEC00F05D2A08D0928A80BA05D0C80E78
:101150005F6EEBEC00F05D065DC001F0A9EF09F0F9
:10116000006A016A5F50D89060B1002600320132F7
:1011700060B300260032013260B500260032013231
:1011800060B700260032013260B900260032013219
:1011900060BB00260032013260BD00260032013201
:1011A00060BF00260032013204EF09F05F50601981
:1011B000800B626F5FAE02D05F1E5F2A60AF02D00D
:1011C000601F602B6051016A5F5C03E25FC000F04A
:1011D0000CD0006A080E616F5F3600366051005C0B
:1011E000D8B0006E0136612FF7D762AF02D0011E72
:1011F000012A12005C905BBE03D05B50000807E33D
:101200005BC05FF06069ACD701C05BF05C805BC025
:101210005FF00A0E606FCADF01C05DF05BC05FF077
:101220000A0E606FC3DF00C05EF05CA040D0036AAE
:101230005D50190FE96E000E0320EA6EEFCF5FF0EC
:10124000936A5FC08AFF94928B82050E5F6EEBEC0F
:1012500000F094908B9094928B9294948B94036A68
:101260005E50190FE96E000E0320EA6EEFCF5FF0BB
:10127000936A5FC08AFF94948B84050E5F6EEBECDB
:1012800000F094908B9094928B9294948B94936AA8
:10129000C00E8A6E94908B80050E5F6EEBEC00F0B2
:1012A00094908B9094928B9294948B9430D0036A08
:1012B0005D50190FE96E000E0320EA6EEFCF5FF06C
:1012C000936A5FC08AFF94928B82050E5F6EEBEC8F
:1012D00000F094908B9094928B9294948B94036AE8
:1012E0005E50190FE96E000E0320EA6EEFCF5FF03B
:1012F000936A5FC08AFF94948B84050E5F6EEBEC5B
:1013000000F094908B9094928B9294948B94120012
:101310004C50020803E359C05AF0BEDD4C5002089D
:101320004EE2010E4A5C036A3F0F016E000E03227B
:1013300001C05AF003C05BF0010E4A5C036A3F0F24
:10134000E96E000E0320EA6EEFCF5CF05CC05DF04A
:10135000F2D65BC0EAFF5AC0E9FF01C0EFFF010E01
:101360004A5C5A6E010E4A5C036A3F0FE96E000E3A
:101370000320EA6EEFCF5BF0F250006EF29E5AC08F
:10138000A9FF5BC0A8FFA69CA69EA6840F01550ED0
:10139000A76EAA0EA76EA682A6B2FED7A69400508C
:1013A000F212010E4A5C036A3F0FE96E000E032041
:1013B000EA6EEFCF5AF05AC05BF000011BDF12005B
:1013C000928480B40AD0928880B807D0C80E5F6E2D
:1013D000EBEC00F0010E496E4C6A492C05D04A52E4
:1013E00003E1550E5A6E58DD928680B60CD0492C1A
:1013F0000AD0020E596EC80E5F6EEBEC00F0592E4B
:10140000FAD74A2A4C6A010E4A5CF70F25E2090F07
:101410002EEF0AF03E0E596E7BDF1ED03F0E596E46
:1014200077DF1AD0400E596E73DF16D04A0E596E10
:101430006FDF12D0010E596E6BDF0ED0050E596EA4
:1014400067DF0AD0280E596E63DF06D0530E596E3F
:101450005FDF02D04A6A496A62EF0BF0E824F76A5C
:10146000F736770FF66E140EF7220A00F550FA6E73
:101470000800F550F96E14141C1424142C143414A0
:101480003C1444144C1454144B6A4E6A4F6A1200B4
:101490003FBE03D03F504E5C02E347A002D047A6B8
:1014A00005D0949A8B8AF0DF4780479640BE03D0E0
:1014B00040504E5C0DE347A00BD04550535C006E8E
:1014C000E8AE06D047A004D0949C8B8CDDDF47901B
:1014D0004550535C800A006E4350800A005C07E26E
:1014E00047B205D0949A8B9ACFDF478210D04650EE
:1014F0004E5C0DE145505324800A006E4350800A33
:10150000005C05E004E347B602D04786479242BE3E
:1015100003D04250505C0AE3949A8B9A949C8B9C23
:10152000949E8B8EB1DF506A4784479641BE03D0AC
:1015300041504E5C0BE347A409D0949E8B9EA4DFE0
:10154000010E486E47904792479410D04550522460
:10155000800A006E4450800A005C08E347A406D06D
:10156000949E8B9E91DF47904792479463EF0BF0D8
:1015700059904C5204E159B002D04C6A59804C50F9
:1015800007E0020A09E0060A0BE0020A17E017D09A
:1015900043C05BF02FDE13D053C05BF02BDE0FD0C7
:1015A0004850020808E34850010805E2482A470E5F
:1015B0005A6E72DC02D0486A4C6A01D04C6A6CEFF9
:1015C0000BF0F86AD09E078EEA6AE96A3D6A479096
:1015D000479247944796486A496A4A6A4B6A4C6AF6
:1015E0004D6A4E6A4F6A506A516A4798479A576ADD
:1015F000E00E566E120E556E8B0E546E586AC15028
:10160000C00B0F09C16E070EB46EBF0E196E860EA9
:101610001A6EDB0E1B6ECF0E1C6EE60E1D6EED0EEF
:101620001E6EFD0E1F6E870E206E2168E70E226E65
:10163000F80E236EF70E246EB90E256EBE0E266EC2
:10164000DE0E276ED00E286EB10E296EF10E2A6EB8
:10165000F30E2B6EFC0E2C6E030E2D6E050E2E6EF1
:10166000140E2F6E060E306EF10E316EFE0E326EBF
:10167000020E336E030E346E356E050E366E0A0E94
:10168000376E080E386EFB0E396E3A6A020E3B6EEC
:10169000030E3C6E010E3F6E406E020E416E010E57
:1016A000426EF10E436EF60E446E020E456E030E50
:1016B000466E71EF00F0D8EF00F0CEEF06F027D4C1
:1016C00091D47ED6E5D6495207E14A5205E13D5212
:0C16D00003E1585201E14CD7EED70300B3
:020000040030CA
:0E0000000080380E008781000FC00FE00F4017
:00000001FF
;PIC18F2550
;CRC=B797  CREATED="09-abr-16 08:59"
